{
  "_format": "hh-sol-artifact-1",
  "contractName": "HighVNFT",
  "sourceName": "contracts/HighVNFT.sol",
  "abi": [
    {
      "inputs": [
        {
          "internalType": "address",
          "name": "_owner",
          "type": "address"
        },
        {
          "internalType": "string",
          "name": "_nftURI",
          "type": "string"
        }
      ],
      "stateMutability": "nonpayable",
      "type": "constructor"
    },
    {
      "inputs": [
        {
          "internalType": "address",
          "name": "sender",
          "type": "address"
        },
        {
          "internalType": "uint256",
          "name": "balance",
          "type": "uint256"
        },
        {
          "internalType": "uint256",
          "name": "needed",
          "type": "uint256"
        },
        {
          "internalType": "uint256",
          "name": "tokenId",
          "type": "uint256"
        }
      ],
      "name": "ERC1155InsufficientBalance",
      "type": "error"
    },
    {
      "inputs": [
        {
          "internalType": "address",
          "name": "approver",
          "type": "address"
        }
      ],
      "name": "ERC1155InvalidApprover",
      "type": "error"
    },
    {
      "inputs": [
        {
          "internalType": "uint256",
          "name": "idsLength",
          "type": "uint256"
        },
        {
          "internalType": "uint256",
          "name": "valuesLength",
          "type": "uint256"
        }
      ],
      "name": "ERC1155InvalidArrayLength",
      "type": "error"
    },
    {
      "inputs": [
        {
          "internalType": "address",
          "name": "operator",
          "type": "address"
        }
      ],
      "name": "ERC1155InvalidOperator",
      "type": "error"
    },
    {
      "inputs": [
        {
          "internalType": "address",
          "name": "receiver",
          "type": "address"
        }
      ],
      "name": "ERC1155InvalidReceiver",
      "type": "error"
    },
    {
      "inputs": [
        {
          "internalType": "address",
          "name": "sender",
          "type": "address"
        }
      ],
      "name": "ERC1155InvalidSender",
      "type": "error"
    },
    {
      "inputs": [
        {
          "internalType": "address",
          "name": "operator",
          "type": "address"
        },
        {
          "internalType": "address",
          "name": "owner",
          "type": "address"
        }
      ],
      "name": "ERC1155MissingApprovalForAll",
      "type": "error"
    },
    {
      "inputs": [],
      "name": "NFT_NOT_TRANSFERABLE",
      "type": "error"
    },
    {
      "inputs": [
        {
          "internalType": "address",
          "name": "owner",
          "type": "address"
        }
      ],
      "name": "OwnableInvalidOwner",
      "type": "error"
    },
    {
      "inputs": [
        {
          "internalType": "address",
          "name": "account",
          "type": "address"
        }
      ],
      "name": "OwnableUnauthorizedAccount",
      "type": "error"
    },
    {
      "anonymous": false,
      "inputs": [
        {
          "indexed": true,
          "internalType": "address",
          "name": "account",
          "type": "address"
        },
        {
          "indexed": true,
          "internalType": "address",
          "name": "operator",
          "type": "address"
        },
        {
          "indexed": false,
          "internalType": "bool",
          "name": "approved",
          "type": "bool"
        }
      ],
      "name": "ApprovalForAll",
      "type": "event"
    },
    {
      "anonymous": false,
      "inputs": [
        {
          "indexed": true,
          "internalType": "address",
          "name": "previousOwner",
          "type": "address"
        },
        {
          "indexed": true,
          "internalType": "address",
          "name": "newOwner",
          "type": "address"
        }
      ],
      "name": "OwnershipTransferred",
      "type": "event"
    },
    {
      "anonymous": false,
      "inputs": [
        {
          "indexed": true,
          "internalType": "address",
          "name": "operator",
          "type": "address"
        },
        {
          "indexed": true,
          "internalType": "address",
          "name": "from",
          "type": "address"
        },
        {
          "indexed": true,
          "internalType": "address",
          "name": "to",
          "type": "address"
        },
        {
          "indexed": false,
          "internalType": "uint256[]",
          "name": "ids",
          "type": "uint256[]"
        },
        {
          "indexed": false,
          "internalType": "uint256[]",
          "name": "values",
          "type": "uint256[]"
        }
      ],
      "name": "TransferBatch",
      "type": "event"
    },
    {
      "anonymous": false,
      "inputs": [
        {
          "indexed": true,
          "internalType": "address",
          "name": "operator",
          "type": "address"
        },
        {
          "indexed": true,
          "internalType": "address",
          "name": "from",
          "type": "address"
        },
        {
          "indexed": true,
          "internalType": "address",
          "name": "to",
          "type": "address"
        },
        {
          "indexed": false,
          "internalType": "uint256",
          "name": "id",
          "type": "uint256"
        },
        {
          "indexed": false,
          "internalType": "uint256",
          "name": "value",
          "type": "uint256"
        }
      ],
      "name": "TransferSingle",
      "type": "event"
    },
    {
      "anonymous": false,
      "inputs": [
        {
          "indexed": false,
          "internalType": "string",
          "name": "value",
          "type": "string"
        },
        {
          "indexed": true,
          "internalType": "uint256",
          "name": "id",
          "type": "uint256"
        }
      ],
      "name": "URI",
      "type": "event"
    },
    {
      "inputs": [],
      "name": "TOKEN_LIMIT",
      "outputs": [
        {
          "internalType": "uint8",
          "name": "",
          "type": "uint8"
        }
      ],
      "stateMutability": "view",
      "type": "function"
    },
    {
      "inputs": [
        {
          "internalType": "address",
          "name": "account",
          "type": "address"
        },
        {
          "internalType": "uint256",
          "name": "id",
          "type": "uint256"
        }
      ],
      "name": "balanceOf",
      "outputs": [
        {
          "internalType": "uint256",
          "name": "",
          "type": "uint256"
        }
      ],
      "stateMutability": "view",
      "type": "function"
    },
    {
      "inputs": [
        {
          "internalType": "address[]",
          "name": "accounts",
          "type": "address[]"
        },
        {
          "internalType": "uint256[]",
          "name": "ids",
          "type": "uint256[]"
        }
      ],
      "name": "balanceOfBatch",
      "outputs": [
        {
          "internalType": "uint256[]",
          "name": "",
          "type": "uint256[]"
        }
      ],
      "stateMutability": "view",
      "type": "function"
    },
    {
      "inputs": [
        {
          "internalType": "address",
          "name": "account",
          "type": "address"
        },
        {
          "internalType": "uint256",
          "name": "id",
          "type": "uint256"
        },
        {
          "internalType": "uint256",
          "name": "value",
          "type": "uint256"
        }
      ],
      "name": "burn",
      "outputs": [],
      "stateMutability": "nonpayable",
      "type": "function"
    },
    {
      "inputs": [
        {
          "internalType": "address",
          "name": "account",
          "type": "address"
        },
        {
          "internalType": "uint256[]",
          "name": "ids",
          "type": "uint256[]"
        },
        {
          "internalType": "uint256[]",
          "name": "values",
          "type": "uint256[]"
        }
      ],
      "name": "burnBatch",
      "outputs": [],
      "stateMutability": "nonpayable",
      "type": "function"
    },
    {
      "inputs": [],
      "name": "contractURI",
      "outputs": [
        {
          "internalType": "string",
          "name": "",
          "type": "string"
        }
      ],
      "stateMutability": "view",
      "type": "function"
    },
    {
      "inputs": [
        {
          "internalType": "address",
          "name": "account",
          "type": "address"
        },
        {
          "internalType": "address",
          "name": "operator",
          "type": "address"
        }
      ],
      "name": "isApprovedForAll",
      "outputs": [
        {
          "internalType": "bool",
          "name": "",
          "type": "bool"
        }
      ],
      "stateMutability": "view",
      "type": "function"
    },
    {
      "inputs": [
        {
          "internalType": "address",
          "name": "recipient",
          "type": "address"
        },
        {
          "internalType": "uint256",
          "name": "nftId",
          "type": "uint256"
        }
      ],
      "name": "mint",
      "outputs": [],
      "stateMutability": "nonpayable",
      "type": "function"
    },
    {
      "inputs": [],
      "name": "owner",
      "outputs": [
        {
          "internalType": "address",
          "name": "",
          "type": "address"
        }
      ],
      "stateMutability": "view",
      "type": "function"
    },
    {
      "inputs": [],
      "name": "renounceOwnership",
      "outputs": [],
      "stateMutability": "nonpayable",
      "type": "function"
    },
    {
      "inputs": [
        {
          "internalType": "address",
          "name": "from",
          "type": "address"
        },
        {
          "internalType": "address",
          "name": "to",
          "type": "address"
        },
        {
          "internalType": "uint256[]",
          "name": "ids",
          "type": "uint256[]"
        },
        {
          "internalType": "uint256[]",
          "name": "values",
          "type": "uint256[]"
        },
        {
          "internalType": "bytes",
          "name": "data",
          "type": "bytes"
        }
      ],
      "name": "safeBatchTransferFrom",
      "outputs": [],
      "stateMutability": "nonpayable",
      "type": "function"
    },
    {
      "inputs": [
        {
          "internalType": "address",
          "name": "from",
          "type": "address"
        },
        {
          "internalType": "address",
          "name": "to",
          "type": "address"
        },
        {
          "internalType": "uint256",
          "name": "id",
          "type": "uint256"
        },
        {
          "internalType": "uint256",
          "name": "value",
          "type": "uint256"
        },
        {
          "internalType": "bytes",
          "name": "data",
          "type": "bytes"
        }
      ],
      "name": "safeTransferFrom",
      "outputs": [],
      "stateMutability": "nonpayable",
      "type": "function"
    },
    {
      "inputs": [
        {
          "internalType": "address",
          "name": "operator",
          "type": "address"
        },
        {
          "internalType": "bool",
          "name": "approved",
          "type": "bool"
        }
      ],
      "name": "setApprovalForAll",
      "outputs": [],
      "stateMutability": "nonpayable",
      "type": "function"
    },
    {
      "inputs": [
        {
          "internalType": "bytes4",
          "name": "interfaceId",
          "type": "bytes4"
        }
      ],
      "name": "supportsInterface",
      "outputs": [
        {
          "internalType": "bool",
          "name": "",
          "type": "bool"
        }
      ],
      "stateMutability": "view",
      "type": "function"
    },
    {
      "inputs": [
        {
          "internalType": "address",
          "name": "newOwner",
          "type": "address"
        }
      ],
      "name": "transferOwnership",
      "outputs": [],
      "stateMutability": "nonpayable",
      "type": "function"
    },
    {
      "inputs": [
        {
          "internalType": "uint256",
          "name": "_tokenid",
          "type": "uint256"
        }
      ],
      "name": "uri",
      "outputs": [
        {
          "internalType": "string",
          "name": "",
          "type": "string"
        }
      ],
      "stateMutability": "view",
      "type": "function"
    }
  ],
  "bytecode": "0x60806040523480156200001157600080fd5b5060405162001a2738038062001a27833981016040819052620000349162000167565b60408051602081019091526000815282906200005081620000c7565b506001600160a01b0381166200008057604051631e4fbdf760e01b81526000600482015260240160405180910390fd5b6200008b81620000d9565b50806040516020016200009f919062000242565b60405160208183030381529060405260049081620000be919062000323565b505050620003ef565b6002620000d5828262000323565b5050565b600380546001600160a01b038381166001600160a01b0319831681179093556040519116919082907f8be0079c531659141344cd1fd0a4f28419497f9722a3daafe3b4186f6b6457e090600090a35050565b634e487b7160e01b600052604160045260246000fd5b60005b838110156200015e57818101518382015260200162000144565b50506000910152565b600080604083850312156200017b57600080fd5b82516001600160a01b03811681146200019357600080fd5b60208401519092506001600160401b0380821115620001b157600080fd5b818501915085601f830112620001c657600080fd5b815181811115620001db57620001db6200012b565b604051601f8201601f19908116603f011681019083821181831017156200020657620002066200012b565b816040528281528860208487010111156200022057600080fd5b6200023383602083016020880162000141565b80955050505050509250929050565b7f68747470733a2f2f697066732e696f2f697066732f00000000000000000000008152600082516200027c81601585016020870162000141565b602f60f81b6015939091019283015250601601919050565b600181811c90821680620002a957607f821691505b602082108103620002ca57634e487b7160e01b600052602260045260246000fd5b50919050565b601f8211156200031e57600081815260208120601f850160051c81016020861015620002f95750805b601f850160051c820191505b818110156200031a5782815560010162000305565b5050505b505050565b81516001600160401b038111156200033f576200033f6200012b565b620003578162000350845462000294565b84620002d0565b602080601f8311600181146200038f5760008415620003765750858301515b600019600386901b1c1916600185901b1785556200031a565b600085815260208120601f198616915b82811015620003c0578886015182559484019460019091019084016200039f565b5085821015620003df5787850151600019600388901b60f8161c191681555b5050505050600190811b01905550565b61162880620003ff6000396000f3fe608060405234801561001057600080fd5b50600436106100df5760003560e01c8063715018a611610087578063715018a6146101c25780638da5cb5b146101ca578063a22cb465146101e3578063e8a3d485146101f6578063e985e9c5146101fe578063f242432a1461023a578063f2fde38b1461024d578063f5298aca1461026057600080fd5b8062fdd58e146100e457806301ffc9a71461010a578063031bd4c41461012d5780630e89341c146101475780632eb2c2d61461016757806340c10f191461017c5780634e1273f41461018f5780636b20c454146101af575b600080fd5b6100f76100f2366004610e5a565b610273565b6040519081526020015b60405180910390f35b61011d610118366004610e9a565b61029b565b6040519015158152602001610101565b610135600181565b60405160ff9091168152602001610101565b61015a610155366004610ebe565b6102eb565b6040516101019190610f27565b61017a61017536600461107d565b61031f565b005b61017a61018a366004610e5a565b61033b565b6101a261019d366004611126565b61035e565b6040516101019190611220565b61017a6101bd366004611233565b610437565b61017a61049b565b6003546001600160a01b031660405161010191906112a6565b61017a6101f13660046112ba565b6104af565b61015a6104ba565b61011d61020c3660046112f6565b6001600160a01b03918216600090815260016020908152604080832093909416825291909152205460ff1690565b61017a610248366004611329565b6104cb565b61017a61025b36600461138d565b6104e0565b61017a61026e3660046113a8565b61051e565b6000818152602081815260408083206001600160a01b03861684529091529020545b92915050565b60006001600160e01b03198216636cdb3d1360e11b14806102cc57506001600160e01b031982166303a24d0760e21b145b8061029557506301ffc9a760e01b6001600160e01b0319831614610295565b606060046102f883610554565b6040516020016103099291906113f7565b6040516020818303038152906040529050919050565b6103276105e6565b61033485858585856105ff565b5050505050565b61035a8282600160ff166040518060200160405280600081525061065f565b5050565b606081518351146103945781518351604051635b05999160e01b8152600481019290925260248201526044015b60405180910390fd5b600083516001600160401b038111156103af576103af610f3a565b6040519080825280602002602001820160405280156103d8578160200160208202803683370190505b50905060005b845181101561042f5760208082028601015161040290602080840287010151610273565b828281518110610414576104146114b5565b6020908102919091010152610428816114e1565b90506103de565b509392505050565b6001600160a01b03831633148015906104575750610455833361020c565b155b1561048b57335b60405163711bec9160e11b81526001600160a01b039182166004820152908416602482015260440161038b565b6104968383836106b0565b505050565b6104a36106f6565b6104ad6000610723565b565b61035a338383610775565b60606104c660006102eb565b905090565b6104d36105e6565b610334858585858561080b565b6104e86106f6565b6001600160a01b038116610512576000604051631e4fbdf760e01b815260040161038b91906112a6565b61051b81610723565b50565b6001600160a01b038316331480159061053e575061053c833361020c565b155b15610549573361045e565b610496838383610885565b60606000610561836108dc565b60010190506000816001600160401b0381111561058057610580610f3a565b6040519080825280601f01601f1916602001820160405280156105aa576020820181803683370190505b5090508181016020015b600019016f181899199a1a9b1b9c1cb0b131b232b360811b600a86061a8153600a85049450846105b457509392505050565b60405163ad5b197560e01b815260040160405180910390fd5b6001600160a01b038416610629576000604051632bfa23e760e11b815260040161038b91906112a6565b6001600160a01b038516610652576000604051626a0d4560e21b815260040161038b91906112a6565b61033485858585856109b4565b6001600160a01b038416610689576000604051632bfa23e760e11b815260040161038b91906112a6565b6000806106968585610a07565b915091506106a86000878484876109b4565b505050505050565b6001600160a01b0383166106d9576000604051626a0d4560e21b815260040161038b91906112a6565b6104968360008484604051806020016040528060008152506109b4565b6003546001600160a01b031633146104ad573360405163118cdaa760e01b815260040161038b91906112a6565b600380546001600160a01b038381166001600160a01b0319831681179093556040519116919082907f8be0079c531659141344cd1fd0a4f28419497f9722a3daafe3b4186f6b6457e090600090a35050565b6001600160a01b03821661079e57600060405162ced3e160e81b815260040161038b91906112a6565b6001600160a01b03838116600081815260016020908152604080832094871680845294825291829020805460ff191686151590811790915591519182527f17307eab39ab6107e8899845ad3d59bd9653f200f220920489ca2b5937696c31910160405180910390a3505050565b6001600160a01b038416610835576000604051632bfa23e760e11b815260040161038b91906112a6565b6001600160a01b03851661085e576000604051626a0d4560e21b815260040161038b91906112a6565b60008061086b8585610a07565b9150915061087c87878484876109b4565b50505050505050565b6001600160a01b0383166108ae576000604051626a0d4560e21b815260040161038b91906112a6565b6000806108bb8484610a07565b915091506103348560008484604051806020016040528060008152506109b4565b60008072184f03e93ff9f4daa797ed6e38ed64bf6a1f0160401b831061091b5772184f03e93ff9f4daa797ed6e38ed64bf6a1f0160401b830492506040015b6d04ee2d6d415b85acef81000000008310610947576d04ee2d6d415b85acef8100000000830492506020015b662386f26fc10000831061096557662386f26fc10000830492506010015b6305f5e100831061097d576305f5e100830492506008015b612710831061099157612710830492506004015b606483106109a3576064830492506002015b600a83106102955760010192915050565b6109c085858585610a2f565b6001600160a01b0384161561033457825133906001036109f957602084810151908401516109f2838989858589610c4c565b50506106a8565b6106a8818787878787610d5e565b6040805160018082526020820194909452808201938452606081019290925260808201905291565b8051825114610a5e5781518151604051635b05999160e01b81526004810192909252602482015260440161038b565b3360005b8351811015610b6d576020818102858101820151908501909101516001600160a01b03881615610b15576000828152602081815260408083206001600160a01b038c16845290915290205481811015610aee576040516303dee4c560e01b81526001600160a01b038a16600482015260248101829052604481018390526064810184905260840161038b565b6000838152602081815260408083206001600160a01b038d16845290915290209082900390555b6001600160a01b03871615610b5a576000828152602081815260408083206001600160a01b038b16845290915281208054839290610b549084906114fa565b90915550505b505080610b66906114e1565b9050610a62565b508251600103610bee5760208301516000906020840151909150856001600160a01b0316876001600160a01b0316846001600160a01b03167fc3d58168c5ae7397731d063d5bbf3d657854427343f4c083240f7aacaa2d0f628585604051610bdf929190918252602082015260400190565b60405180910390a45050610334565b836001600160a01b0316856001600160a01b0316826001600160a01b03167f4a39dc06d4c0dbc64b70af90fd698a233a518aa5d07e595d983b8c0526c8f7fb8686604051610c3d92919061150d565b60405180910390a45050505050565b6001600160a01b0384163b156106a85760405163f23a6e6160e01b81526001600160a01b0385169063f23a6e6190610c909089908990889088908890600401611532565b6020604051808303816000875af1925050508015610ccb575060408051601f3d908101601f19168201909252610cc891810190611577565b60015b610d2b573d808015610cf9576040519150601f19603f3d011682016040523d82523d6000602084013e610cfe565b606091505b508051600003610d235784604051632bfa23e760e11b815260040161038b91906112a6565b805181602001fd5b6001600160e01b0319811663f23a6e6160e01b1461087c5784604051632bfa23e760e11b815260040161038b91906112a6565b6001600160a01b0384163b156106a85760405163bc197c8160e01b81526001600160a01b0385169063bc197c8190610da29089908990889088908890600401611594565b6020604051808303816000875af1925050508015610ddd575060408051601f3d908101601f19168201909252610dda91810190611577565b60015b610e0b573d808015610cf9576040519150601f19603f3d011682016040523d82523d6000602084013e610cfe565b6001600160e01b0319811663bc197c8160e01b1461087c5784604051632bfa23e760e11b815260040161038b91906112a6565b80356001600160a01b0381168114610e5557600080fd5b919050565b60008060408385031215610e6d57600080fd5b610e7683610e3e565b946020939093013593505050565b6001600160e01b03198116811461051b57600080fd5b600060208284031215610eac57600080fd5b8135610eb781610e84565b9392505050565b600060208284031215610ed057600080fd5b5035919050565b60005b83811015610ef2578181015183820152602001610eda565b50506000910152565b60008151808452610f13816020860160208601610ed7565b601f01601f19169290920160200192915050565b602081526000610eb76020830184610efb565b634e487b7160e01b600052604160045260246000fd5b604051601f8201601f191681016001600160401b0381118282101715610f7857610f78610f3a565b604052919050565b60006001600160401b03821115610f9957610f99610f3a565b5060051b60200190565b600082601f830112610fb457600080fd5b81356020610fc9610fc483610f80565b610f50565b82815260059290921b84018101918181019086841115610fe857600080fd5b8286015b848110156110035780358352918301918301610fec565b509695505050505050565b600082601f83011261101f57600080fd5b81356001600160401b0381111561103857611038610f3a565b61104b601f8201601f1916602001610f50565b81815284602083860101111561106057600080fd5b816020850160208301376000918101602001919091529392505050565b600080600080600060a0868803121561109557600080fd5b61109e86610e3e565b94506110ac60208701610e3e565b935060408601356001600160401b03808211156110c857600080fd5b6110d489838a01610fa3565b945060608801359150808211156110ea57600080fd5b6110f689838a01610fa3565b9350608088013591508082111561110c57600080fd5b506111198882890161100e565b9150509295509295909350565b6000806040838503121561113957600080fd5b82356001600160401b038082111561115057600080fd5b818501915085601f83011261116457600080fd5b81356020611174610fc483610f80565b82815260059290921b8401810191818101908984111561119357600080fd5b948201945b838610156111b8576111a986610e3e565b82529482019490820190611198565b965050860135925050808211156111ce57600080fd5b506111db85828601610fa3565b9150509250929050565b600081518084526020808501945080840160005b83811015611215578151875295820195908201906001016111f9565b509495945050505050565b602081526000610eb760208301846111e5565b60008060006060848603121561124857600080fd5b61125184610e3e565b925060208401356001600160401b038082111561126d57600080fd5b61127987838801610fa3565b9350604086013591508082111561128f57600080fd5b5061129c86828701610fa3565b9150509250925092565b6001600160a01b0391909116815260200190565b600080604083850312156112cd57600080fd5b6112d683610e3e565b9150602083013580151581146112eb57600080fd5b809150509250929050565b6000806040838503121561130957600080fd5b61131283610e3e565b915061132060208401610e3e565b90509250929050565b600080600080600060a0868803121561134157600080fd5b61134a86610e3e565b945061135860208701610e3e565b9350604086013592506060860135915060808601356001600160401b0381111561138157600080fd5b6111198882890161100e565b60006020828403121561139f57600080fd5b610eb782610e3e565b6000806000606084860312156113bd57600080fd5b6113c684610e3e565b95602085013595506040909401359392505050565b600081516113ed818560208601610ed7565b9290920192915050565b600080845481600182811c91508083168061141357607f831692505b6020808410820361143257634e487b7160e01b86526022600452602486fd5b818015611446576001811461145b57611488565b60ff1986168952841515850289019650611488565b60008b81526020902060005b868110156114805781548b820152908501908301611467565b505084890196505b5050505050506114ac61149b82866113db565b64173539b7b760d91b815260050190565b95945050505050565b634e487b7160e01b600052603260045260246000fd5b634e487b7160e01b600052601160045260246000fd5b6000600182016114f3576114f36114cb565b5060010190565b80820180821115610295576102956114cb565b60408152600061152060408301856111e5565b82810360208401526114ac81856111e5565b6001600160a01b03868116825285166020820152604081018490526060810183905260a06080820181905260009061156c90830184610efb565b979650505050505050565b60006020828403121561158957600080fd5b8151610eb781610e84565b6001600160a01b0386811682528516602082015260a0604082018190526000906115c0908301866111e5565b82810360608401526115d281866111e5565b905082810360808401526115e68185610efb565b9897505050505050505056fea2646970667358221220c20ed3b82908fe5c6ec3ba5c0fee4591b729852f61483e4c5786056e46f4e2da64736f6c63430008140033",
  "linkReferences": {},
  "deployedLinkReferences": {}
}