{
  "_format": "hh-sol-artifact-1",
  "contractName": "HighVNFT",
  "sourceName": "contracts/HighVNFT.sol",
  "abi": [
    {
      "inputs": [
        {
          "internalType": "address",
          "name": "_owner",
          "type": "address"
        },
        {
          "internalType": "string",
          "name": "_nftURI",
          "type": "string"
        }
      ],
      "stateMutability": "nonpayable",
      "type": "constructor"
    },
    {
      "inputs": [
        {
          "internalType": "address",
          "name": "sender",
          "type": "address"
        },
        {
          "internalType": "uint256",
          "name": "balance",
          "type": "uint256"
        },
        {
          "internalType": "uint256",
          "name": "needed",
          "type": "uint256"
        },
        {
          "internalType": "uint256",
          "name": "tokenId",
          "type": "uint256"
        }
      ],
      "name": "ERC1155InsufficientBalance",
      "type": "error"
    },
    {
      "inputs": [
        {
          "internalType": "address",
          "name": "approver",
          "type": "address"
        }
      ],
      "name": "ERC1155InvalidApprover",
      "type": "error"
    },
    {
      "inputs": [
        {
          "internalType": "uint256",
          "name": "idsLength",
          "type": "uint256"
        },
        {
          "internalType": "uint256",
          "name": "valuesLength",
          "type": "uint256"
        }
      ],
      "name": "ERC1155InvalidArrayLength",
      "type": "error"
    },
    {
      "inputs": [
        {
          "internalType": "address",
          "name": "operator",
          "type": "address"
        }
      ],
      "name": "ERC1155InvalidOperator",
      "type": "error"
    },
    {
      "inputs": [
        {
          "internalType": "address",
          "name": "receiver",
          "type": "address"
        }
      ],
      "name": "ERC1155InvalidReceiver",
      "type": "error"
    },
    {
      "inputs": [
        {
          "internalType": "address",
          "name": "sender",
          "type": "address"
        }
      ],
      "name": "ERC1155InvalidSender",
      "type": "error"
    },
    {
      "inputs": [
        {
          "internalType": "address",
          "name": "operator",
          "type": "address"
        },
        {
          "internalType": "address",
          "name": "owner",
          "type": "address"
        }
      ],
      "name": "ERC1155MissingApprovalForAll",
      "type": "error"
    },
    {
      "inputs": [],
      "name": "NFT_NOT_TRANSFERABLE",
      "type": "error"
    },
    {
      "inputs": [
        {
          "internalType": "address",
          "name": "owner",
          "type": "address"
        }
      ],
      "name": "OwnableInvalidOwner",
      "type": "error"
    },
    {
      "inputs": [
        {
          "internalType": "address",
          "name": "account",
          "type": "address"
        }
      ],
      "name": "OwnableUnauthorizedAccount",
      "type": "error"
    },
    {
      "anonymous": false,
      "inputs": [
        {
          "indexed": true,
          "internalType": "address",
          "name": "account",
          "type": "address"
        },
        {
          "indexed": true,
          "internalType": "address",
          "name": "operator",
          "type": "address"
        },
        {
          "indexed": false,
          "internalType": "bool",
          "name": "approved",
          "type": "bool"
        }
      ],
      "name": "ApprovalForAll",
      "type": "event"
    },
    {
      "anonymous": false,
      "inputs": [
        {
          "indexed": true,
          "internalType": "address",
          "name": "previousOwner",
          "type": "address"
        },
        {
          "indexed": true,
          "internalType": "address",
          "name": "newOwner",
          "type": "address"
        }
      ],
      "name": "OwnershipTransferred",
      "type": "event"
    },
    {
      "anonymous": false,
      "inputs": [
        {
          "indexed": true,
          "internalType": "address",
          "name": "operator",
          "type": "address"
        },
        {
          "indexed": true,
          "internalType": "address",
          "name": "from",
          "type": "address"
        },
        {
          "indexed": true,
          "internalType": "address",
          "name": "to",
          "type": "address"
        },
        {
          "indexed": false,
          "internalType": "uint256[]",
          "name": "ids",
          "type": "uint256[]"
        },
        {
          "indexed": false,
          "internalType": "uint256[]",
          "name": "values",
          "type": "uint256[]"
        }
      ],
      "name": "TransferBatch",
      "type": "event"
    },
    {
      "anonymous": false,
      "inputs": [
        {
          "indexed": true,
          "internalType": "address",
          "name": "operator",
          "type": "address"
        },
        {
          "indexed": true,
          "internalType": "address",
          "name": "from",
          "type": "address"
        },
        {
          "indexed": true,
          "internalType": "address",
          "name": "to",
          "type": "address"
        },
        {
          "indexed": false,
          "internalType": "uint256",
          "name": "id",
          "type": "uint256"
        },
        {
          "indexed": false,
          "internalType": "uint256",
          "name": "value",
          "type": "uint256"
        }
      ],
      "name": "TransferSingle",
      "type": "event"
    },
    {
      "anonymous": false,
      "inputs": [
        {
          "indexed": false,
          "internalType": "string",
          "name": "value",
          "type": "string"
        },
        {
          "indexed": true,
          "internalType": "uint256",
          "name": "id",
          "type": "uint256"
        }
      ],
      "name": "URI",
      "type": "event"
    },
    {
      "inputs": [],
      "name": "TOKEN_LIMIT",
      "outputs": [
        {
          "internalType": "uint8",
          "name": "",
          "type": "uint8"
        }
      ],
      "stateMutability": "view",
      "type": "function"
    },
    {
      "inputs": [
        {
          "internalType": "address",
          "name": "account",
          "type": "address"
        },
        {
          "internalType": "uint256",
          "name": "id",
          "type": "uint256"
        }
      ],
      "name": "balanceOf",
      "outputs": [
        {
          "internalType": "uint256",
          "name": "",
          "type": "uint256"
        }
      ],
      "stateMutability": "view",
      "type": "function"
    },
    {
      "inputs": [
        {
          "internalType": "address[]",
          "name": "accounts",
          "type": "address[]"
        },
        {
          "internalType": "uint256[]",
          "name": "ids",
          "type": "uint256[]"
        }
      ],
      "name": "balanceOfBatch",
      "outputs": [
        {
          "internalType": "uint256[]",
          "name": "",
          "type": "uint256[]"
        }
      ],
      "stateMutability": "view",
      "type": "function"
    },
    {
      "inputs": [
        {
          "internalType": "address",
          "name": "account",
          "type": "address"
        },
        {
          "internalType": "uint256",
          "name": "id",
          "type": "uint256"
        },
        {
          "internalType": "uint256",
          "name": "value",
          "type": "uint256"
        }
      ],
      "name": "burn",
      "outputs": [],
      "stateMutability": "nonpayable",
      "type": "function"
    },
    {
      "inputs": [
        {
          "internalType": "address",
          "name": "account",
          "type": "address"
        },
        {
          "internalType": "uint256[]",
          "name": "ids",
          "type": "uint256[]"
        },
        {
          "internalType": "uint256[]",
          "name": "values",
          "type": "uint256[]"
        }
      ],
      "name": "burnBatch",
      "outputs": [],
      "stateMutability": "nonpayable",
      "type": "function"
    },
    {
      "inputs": [],
      "name": "contractURI",
      "outputs": [
        {
          "internalType": "string",
          "name": "",
          "type": "string"
        }
      ],
      "stateMutability": "view",
      "type": "function"
    },
    {
      "inputs": [
        {
          "internalType": "address",
          "name": "account",
          "type": "address"
        },
        {
          "internalType": "address",
          "name": "operator",
          "type": "address"
        }
      ],
      "name": "isApprovedForAll",
      "outputs": [
        {
          "internalType": "bool",
          "name": "",
          "type": "bool"
        }
      ],
      "stateMutability": "view",
      "type": "function"
    },
    {
      "inputs": [
        {
          "internalType": "address",
          "name": "recipient",
          "type": "address"
        },
        {
          "internalType": "uint256",
          "name": "nftId",
          "type": "uint256"
        }
      ],
      "name": "mint",
      "outputs": [],
      "stateMutability": "nonpayable",
      "type": "function"
    },
    {
      "inputs": [],
      "name": "owner",
      "outputs": [
        {
          "internalType": "address",
          "name": "",
          "type": "address"
        }
      ],
      "stateMutability": "view",
      "type": "function"
    },
    {
      "inputs": [],
      "name": "renounceOwnership",
      "outputs": [],
      "stateMutability": "nonpayable",
      "type": "function"
    },
    {
      "inputs": [
        {
          "internalType": "address",
          "name": "from",
          "type": "address"
        },
        {
          "internalType": "address",
          "name": "to",
          "type": "address"
        },
        {
          "internalType": "uint256[]",
          "name": "ids",
          "type": "uint256[]"
        },
        {
          "internalType": "uint256[]",
          "name": "values",
          "type": "uint256[]"
        },
        {
          "internalType": "bytes",
          "name": "data",
          "type": "bytes"
        }
      ],
      "name": "safeBatchTransferFrom",
      "outputs": [],
      "stateMutability": "nonpayable",
      "type": "function"
    },
    {
      "inputs": [
        {
          "internalType": "address",
          "name": "from",
          "type": "address"
        },
        {
          "internalType": "address",
          "name": "to",
          "type": "address"
        },
        {
          "internalType": "uint256",
          "name": "id",
          "type": "uint256"
        },
        {
          "internalType": "uint256",
          "name": "value",
          "type": "uint256"
        },
        {
          "internalType": "bytes",
          "name": "data",
          "type": "bytes"
        }
      ],
      "name": "safeTransferFrom",
      "outputs": [],
      "stateMutability": "nonpayable",
      "type": "function"
    },
    {
      "inputs": [
        {
          "internalType": "address",
          "name": "operator",
          "type": "address"
        },
        {
          "internalType": "bool",
          "name": "approved",
          "type": "bool"
        }
      ],
      "name": "setApprovalForAll",
      "outputs": [],
      "stateMutability": "nonpayable",
      "type": "function"
    },
    {
      "inputs": [
        {
          "internalType": "bytes4",
          "name": "interfaceId",
          "type": "bytes4"
        }
      ],
      "name": "supportsInterface",
      "outputs": [
        {
          "internalType": "bool",
          "name": "",
          "type": "bool"
        }
      ],
      "stateMutability": "view",
      "type": "function"
    },
    {
      "inputs": [
        {
          "internalType": "address",
          "name": "newOwner",
          "type": "address"
        }
      ],
      "name": "transferOwnership",
      "outputs": [],
      "stateMutability": "nonpayable",
      "type": "function"
    },
    {
      "inputs": [
        {
          "internalType": "uint256",
          "name": "_tokenId",
          "type": "uint256"
        }
      ],
      "name": "uri",
      "outputs": [
        {
          "internalType": "string",
          "name": "",
          "type": "string"
        }
      ],
      "stateMutability": "view",
      "type": "function"
    }
  ],
  "bytecode": "0x60806040523480156200001157600080fd5b5060405162001a8e38038062001a8e8339810160408190526200003491620001b9565b6040805160208101909152600081528290620000508162000119565b506001600160a01b0381166200008057604051631e4fbdf760e01b81526000600482015260240160405180910390fd5b6200008b816200012b565b506040518060400160405280601581526020017f68747470733a2f2f697066732e696f2f697066732f000000000000000000000081525081604051806040016040528060018152602001602f60f81b815250604051602001620000f19392919062000294565b604051602081830303815290604052600490816200011091906200036c565b50505062000438565b60026200012782826200036c565b5050565b600380546001600160a01b038381166001600160a01b0319831681179093556040519116919082907f8be0079c531659141344cd1fd0a4f28419497f9722a3daafe3b4186f6b6457e090600090a35050565b634e487b7160e01b600052604160045260246000fd5b60005b83811015620001b057818101518382015260200162000196565b50506000910152565b60008060408385031215620001cd57600080fd5b82516001600160a01b0381168114620001e557600080fd5b60208401519092506001600160401b03808211156200020357600080fd5b818501915085601f8301126200021857600080fd5b8151818111156200022d576200022d6200017d565b604051601f8201601f19908116603f011681019083821181831017156200025857620002586200017d565b816040528281528860208487010111156200027257600080fd5b6200028583602083016020880162000193565b80955050505050509250929050565b60008451620002a881846020890162000193565b845190830190620002be81836020890162000193565b8451910190620002d381836020880162000193565b0195945050505050565b600181811c90821680620002f257607f821691505b6020821081036200031357634e487b7160e01b600052602260045260246000fd5b50919050565b601f8211156200036757600081815260208120601f850160051c81016020861015620003425750805b601f850160051c820191505b8181101562000363578281556001016200034e565b5050505b505050565b81516001600160401b038111156200038857620003886200017d565b620003a081620003998454620002dd565b8462000319565b602080601f831160018114620003d85760008415620003bf5750858301515b600019600386901b1c1916600185901b17855562000363565b600085815260208120601f198616915b828110156200040957888601518255948401946001909101908401620003e8565b5085821015620004285787850151600019600388901b60f8161c191681555b5050505050600190811b01905550565b61164680620004486000396000f3fe608060405234801561001057600080fd5b50600436106100df5760003560e01c8063715018a611610087578063715018a6146101c25780638da5cb5b146101ca578063a22cb465146101e3578063e8a3d485146101f6578063e985e9c5146101fe578063f242432a1461023a578063f2fde38b1461024d578063f5298aca1461026057600080fd5b8062fdd58e146100e457806301ffc9a71461010a578063031bd4c41461012d5780630e89341c146101475780632eb2c2d61461016757806340c10f191461017c5780634e1273f41461018f5780636b20c454146101af575b600080fd5b6100f76100f2366004610e79565b610273565b6040519081526020015b60405180910390f35b61011d610118366004610eb9565b61029b565b6040519015158152602001610101565b610135600181565b60405160ff9091168152602001610101565b61015a610155366004610edd565b6102eb565b6040516101019190610f46565b61017a61017536600461109c565b61033e565b005b61017a61018a366004610e79565b61035a565b6101a261019d366004611145565b61037d565b604051610101919061123f565b61017a6101bd366004611252565b610456565b61017a6104ba565b6003546001600160a01b031660405161010191906112c5565b61017a6101f13660046112d9565b6104ce565b61015a6104d9565b61011d61020c366004611315565b6001600160a01b03918216600090815260016020908152604080832093909416825291909152205460ff1690565b61017a610248366004611348565b6104ea565b61017a61025b3660046113ac565b6104ff565b61017a61026e3660046113c7565b61053d565b6000818152602081815260408083206001600160a01b03861684529091529020545b92915050565b60006001600160e01b03198216636cdb3d1360e11b14806102cc57506001600160e01b031982166303a24d0760e21b145b8061029557506301ffc9a760e01b6001600160e01b0319831614610295565b606060046102f883610573565b60405180604001604052806005815260200164173539b7b760d91b81525060405160200161032893929190611416565b6040516020818303038152906040529050919050565b610346610605565b610353858585858561061e565b5050505050565b6103798282600160ff166040518060200160405280600081525061067e565b5050565b606081518351146103b35781518351604051635b05999160e01b8152600481019290925260248201526044015b60405180910390fd5b600083516001600160401b038111156103ce576103ce610f59565b6040519080825280602002602001820160405280156103f7578160200160208202803683370190505b50905060005b845181101561044e5760208082028601015161042190602080840287010151610273565b828281518110610433576104336114ca565b6020908102919091010152610447816114f6565b90506103fd565b509392505050565b6001600160a01b03831633148015906104765750610474833361020c565b155b156104aa57335b60405163711bec9160e11b81526001600160a01b03918216600482015290841660248201526044016103aa565b6104b58383836106cf565b505050565b6104c2610715565b6104cc6000610742565b565b610379338383610794565b60606104e560006102eb565b905090565b6104f2610605565b610353858585858561082a565b610507610715565b6001600160a01b038116610531576000604051631e4fbdf760e01b81526004016103aa91906112c5565b61053a81610742565b50565b6001600160a01b038316331480159061055d575061055b833361020c565b155b15610568573361047d565b6104b58383836108a4565b60606000610580836108fb565b60010190506000816001600160401b0381111561059f5761059f610f59565b6040519080825280601f01601f1916602001820160405280156105c9576020820181803683370190505b5090508181016020015b600019016f181899199a1a9b1b9c1cb0b131b232b360811b600a86061a8153600a85049450846105d357509392505050565b60405163ad5b197560e01b815260040160405180910390fd5b6001600160a01b038416610648576000604051632bfa23e760e11b81526004016103aa91906112c5565b6001600160a01b038516610671576000604051626a0d4560e21b81526004016103aa91906112c5565b61035385858585856109d3565b6001600160a01b0384166106a8576000604051632bfa23e760e11b81526004016103aa91906112c5565b6000806106b58585610a26565b915091506106c76000878484876109d3565b505050505050565b6001600160a01b0383166106f8576000604051626a0d4560e21b81526004016103aa91906112c5565b6104b58360008484604051806020016040528060008152506109d3565b6003546001600160a01b031633146104cc573360405163118cdaa760e01b81526004016103aa91906112c5565b600380546001600160a01b038381166001600160a01b0319831681179093556040519116919082907f8be0079c531659141344cd1fd0a4f28419497f9722a3daafe3b4186f6b6457e090600090a35050565b6001600160a01b0382166107bd57600060405162ced3e160e81b81526004016103aa91906112c5565b6001600160a01b03838116600081815260016020908152604080832094871680845294825291829020805460ff191686151590811790915591519182527f17307eab39ab6107e8899845ad3d59bd9653f200f220920489ca2b5937696c31910160405180910390a3505050565b6001600160a01b038416610854576000604051632bfa23e760e11b81526004016103aa91906112c5565b6001600160a01b03851661087d576000604051626a0d4560e21b81526004016103aa91906112c5565b60008061088a8585610a26565b9150915061089b87878484876109d3565b50505050505050565b6001600160a01b0383166108cd576000604051626a0d4560e21b81526004016103aa91906112c5565b6000806108da8484610a26565b915091506103538560008484604051806020016040528060008152506109d3565b60008072184f03e93ff9f4daa797ed6e38ed64bf6a1f0160401b831061093a5772184f03e93ff9f4daa797ed6e38ed64bf6a1f0160401b830492506040015b6d04ee2d6d415b85acef81000000008310610966576d04ee2d6d415b85acef8100000000830492506020015b662386f26fc10000831061098457662386f26fc10000830492506010015b6305f5e100831061099c576305f5e100830492506008015b61271083106109b057612710830492506004015b606483106109c2576064830492506002015b600a83106102955760010192915050565b6109df85858585610a4e565b6001600160a01b038416156103535782513390600103610a185760208481015190840151610a11838989858589610c6b565b50506106c7565b6106c7818787878787610d7d565b6040805160018082526020820194909452808201938452606081019290925260808201905291565b8051825114610a7d5781518151604051635b05999160e01b8152600481019290925260248201526044016103aa565b3360005b8351811015610b8c576020818102858101820151908501909101516001600160a01b03881615610b34576000828152602081815260408083206001600160a01b038c16845290915290205481811015610b0d576040516303dee4c560e01b81526001600160a01b038a1660048201526024810182905260448101839052606481018490526084016103aa565b6000838152602081815260408083206001600160a01b038d16845290915290209082900390555b6001600160a01b03871615610b79576000828152602081815260408083206001600160a01b038b16845290915281208054839290610b7390849061150f565b90915550505b505080610b85906114f6565b9050610a81565b508251600103610c0d5760208301516000906020840151909150856001600160a01b0316876001600160a01b0316846001600160a01b03167fc3d58168c5ae7397731d063d5bbf3d657854427343f4c083240f7aacaa2d0f628585604051610bfe929190918252602082015260400190565b60405180910390a45050610353565b836001600160a01b0316856001600160a01b0316826001600160a01b03167f4a39dc06d4c0dbc64b70af90fd698a233a518aa5d07e595d983b8c0526c8f7fb8686604051610c5c929190611522565b60405180910390a45050505050565b6001600160a01b0384163b156106c75760405163f23a6e6160e01b81526001600160a01b0385169063f23a6e6190610caf9089908990889088908890600401611550565b6020604051808303816000875af1925050508015610cea575060408051601f3d908101601f19168201909252610ce791810190611595565b60015b610d4a573d808015610d18576040519150601f19603f3d011682016040523d82523d6000602084013e610d1d565b606091505b508051600003610d425784604051632bfa23e760e11b81526004016103aa91906112c5565b805181602001fd5b6001600160e01b0319811663f23a6e6160e01b1461089b5784604051632bfa23e760e11b81526004016103aa91906112c5565b6001600160a01b0384163b156106c75760405163bc197c8160e01b81526001600160a01b0385169063bc197c8190610dc190899089908890889088906004016115b2565b6020604051808303816000875af1925050508015610dfc575060408051601f3d908101601f19168201909252610df991810190611595565b60015b610e2a573d808015610d18576040519150601f19603f3d011682016040523d82523d6000602084013e610d1d565b6001600160e01b0319811663bc197c8160e01b1461089b5784604051632bfa23e760e11b81526004016103aa91906112c5565b80356001600160a01b0381168114610e7457600080fd5b919050565b60008060408385031215610e8c57600080fd5b610e9583610e5d565b946020939093013593505050565b6001600160e01b03198116811461053a57600080fd5b600060208284031215610ecb57600080fd5b8135610ed681610ea3565b9392505050565b600060208284031215610eef57600080fd5b5035919050565b60005b83811015610f11578181015183820152602001610ef9565b50506000910152565b60008151808452610f32816020860160208601610ef6565b601f01601f19169290920160200192915050565b602081526000610ed66020830184610f1a565b634e487b7160e01b600052604160045260246000fd5b604051601f8201601f191681016001600160401b0381118282101715610f9757610f97610f59565b604052919050565b60006001600160401b03821115610fb857610fb8610f59565b5060051b60200190565b600082601f830112610fd357600080fd5b81356020610fe8610fe383610f9f565b610f6f565b82815260059290921b8401810191818101908684111561100757600080fd5b8286015b84811015611022578035835291830191830161100b565b509695505050505050565b600082601f83011261103e57600080fd5b81356001600160401b0381111561105757611057610f59565b61106a601f8201601f1916602001610f6f565b81815284602083860101111561107f57600080fd5b816020850160208301376000918101602001919091529392505050565b600080600080600060a086880312156110b457600080fd5b6110bd86610e5d565b94506110cb60208701610e5d565b935060408601356001600160401b03808211156110e757600080fd5b6110f389838a01610fc2565b9450606088013591508082111561110957600080fd5b61111589838a01610fc2565b9350608088013591508082111561112b57600080fd5b506111388882890161102d565b9150509295509295909350565b6000806040838503121561115857600080fd5b82356001600160401b038082111561116f57600080fd5b818501915085601f83011261118357600080fd5b81356020611193610fe383610f9f565b82815260059290921b840181019181810190898411156111b257600080fd5b948201945b838610156111d7576111c886610e5d565b825294820194908201906111b7565b965050860135925050808211156111ed57600080fd5b506111fa85828601610fc2565b9150509250929050565b600081518084526020808501945080840160005b8381101561123457815187529582019590820190600101611218565b509495945050505050565b602081526000610ed66020830184611204565b60008060006060848603121561126757600080fd5b61127084610e5d565b925060208401356001600160401b038082111561128c57600080fd5b61129887838801610fc2565b935060408601359150808211156112ae57600080fd5b506112bb86828701610fc2565b9150509250925092565b6001600160a01b0391909116815260200190565b600080604083850312156112ec57600080fd5b6112f583610e5d565b91506020830135801515811461130a57600080fd5b809150509250929050565b6000806040838503121561132857600080fd5b61133183610e5d565b915061133f60208401610e5d565b90509250929050565b600080600080600060a0868803121561136057600080fd5b61136986610e5d565b945061137760208701610e5d565b9350604086013592506060860135915060808601356001600160401b038111156113a057600080fd5b6111388882890161102d565b6000602082840312156113be57600080fd5b610ed682610e5d565b6000806000606084860312156113dc57600080fd5b6113e584610e5d565b95602085013595506040909401359392505050565b6000815161140c818560208601610ef6565b9290920192915050565b600080855481600182811c91508083168061143257607f831692505b6020808410820361145157634e487b7160e01b86526022600452602486fd5b818015611465576001811461147a576114a7565b60ff19861689528415158502890196506114a7565b60008c81526020902060005b8681101561149f5781548b820152908501908301611486565b505084890196505b5050505050506114c06114ba82876113fa565b856113fa565b9695505050505050565b634e487b7160e01b600052603260045260246000fd5b634e487b7160e01b600052601160045260246000fd5b600060018201611508576115086114e0565b5060010190565b80820180821115610295576102956114e0565b6040815260006115356040830185611204565b82810360208401526115478185611204565b95945050505050565b6001600160a01b03868116825285166020820152604081018490526060810183905260a06080820181905260009061158a90830184610f1a565b979650505050505050565b6000602082840312156115a757600080fd5b8151610ed681610ea3565b6001600160a01b0386811682528516602082015260a0604082018190526000906115de90830186611204565b82810360608401526115f08186611204565b905082810360808401526116048185610f1a565b9897505050505050505056fea2646970667358221220f74c4d90da8617e11ef1a6f54f761edb3679c3213446c403aa8bc2dae7c0061464736f6c63430008140033",
  "linkReferences": {},
  "deployedLinkReferences": {}
}